{
  "contractName": "NFTMarketPlace",
  "abi": [
    {
      "inputs": [],
      "stateMutability": "nonpayable",
      "type": "constructor"
    },
    {
      "anonymous": false,
      "inputs": [
        {
          "indexed": true,
          "internalType": "address",
          "name": "nftContract",
          "type": "address"
        },
        {
          "indexed": true,
          "internalType": "uint256",
          "name": "id",
          "type": "uint256"
        },
        {
          "indexed": false,
          "internalType": "uint256",
          "name": "tokenId",
          "type": "uint256"
        },
        {
          "indexed": false,
          "internalType": "address",
          "name": "creator",
          "type": "address"
        },
        {
          "indexed": false,
          "internalType": "address",
          "name": "seller",
          "type": "address"
        },
        {
          "indexed": false,
          "internalType": "address",
          "name": "owner",
          "type": "address"
        },
        {
          "indexed": false,
          "internalType": "uint256",
          "name": "price",
          "type": "uint256"
        },
        {
          "indexed": false,
          "internalType": "bool",
          "name": "sold",
          "type": "bool"
        },
        {
          "indexed": false,
          "internalType": "address",
          "name": "oldOwner",
          "type": "address"
        },
        {
          "indexed": false,
          "internalType": "address",
          "name": "oldSeller",
          "type": "address"
        },
        {
          "indexed": false,
          "internalType": "uint256",
          "name": "oldPrice",
          "type": "uint256"
        },
        {
          "indexed": false,
          "internalType": "bool",
          "name": "isResell",
          "type": "bool"
        },
        {
          "indexed": false,
          "internalType": "bool",
          "name": "isBanned",
          "type": "bool"
        },
        {
          "indexed": false,
          "internalType": "bool",
          "name": "soldFirstTime",
          "type": "bool"
        }
      ],
      "name": "NftMarketItemCreated",
      "type": "event"
    },
    {
      "anonymous": false,
      "inputs": [
        {
          "indexed": true,
          "internalType": "uint256",
          "name": "itemId",
          "type": "uint256"
        }
      ],
      "name": "ProductListed",
      "type": "event"
    },
    {
      "anonymous": false,
      "inputs": [
        {
          "indexed": true,
          "internalType": "uint256",
          "name": "id",
          "type": "uint256"
        },
        {
          "indexed": true,
          "internalType": "address",
          "name": "nftContract",
          "type": "address"
        },
        {
          "indexed": true,
          "internalType": "uint256",
          "name": "tokenId",
          "type": "uint256"
        },
        {
          "indexed": false,
          "internalType": "address",
          "name": "creator",
          "type": "address"
        },
        {
          "indexed": false,
          "internalType": "address",
          "name": "seller",
          "type": "address"
        },
        {
          "indexed": false,
          "internalType": "address",
          "name": "owner",
          "type": "address"
        },
        {
          "indexed": false,
          "internalType": "uint256",
          "name": "price",
          "type": "uint256"
        },
        {
          "indexed": false,
          "internalType": "address",
          "name": "oldOwner",
          "type": "address"
        },
        {
          "indexed": false,
          "internalType": "address",
          "name": "oldSeller",
          "type": "address"
        },
        {
          "indexed": false,
          "internalType": "uint256",
          "name": "oldPrice",
          "type": "uint256"
        },
        {
          "indexed": false,
          "internalType": "bool",
          "name": "isResell",
          "type": "bool"
        },
        {
          "indexed": false,
          "internalType": "bool",
          "name": "isBanned",
          "type": "bool"
        },
        {
          "indexed": false,
          "internalType": "bool",
          "name": "soldFirstTime",
          "type": "bool"
        }
      ],
      "name": "ProductSold",
      "type": "event"
    },
    {
      "anonymous": false,
      "inputs": [
        {
          "indexed": true,
          "internalType": "uint256",
          "name": "id",
          "type": "uint256"
        },
        {
          "indexed": true,
          "internalType": "uint256",
          "name": "newPrice",
          "type": "uint256"
        },
        {
          "indexed": false,
          "internalType": "bool",
          "name": "sold",
          "type": "bool"
        },
        {
          "indexed": false,
          "internalType": "address",
          "name": "owner",
          "type": "address"
        },
        {
          "indexed": false,
          "internalType": "address",
          "name": "seller",
          "type": "address"
        },
        {
          "indexed": false,
          "internalType": "bool",
          "name": "isBanned",
          "type": "bool"
        },
        {
          "indexed": false,
          "internalType": "bool",
          "name": "soldFirstTime",
          "type": "bool"
        }
      ],
      "name": "ProductUpdated",
      "type": "event"
    },
    {
      "inputs": [
        {
          "internalType": "address",
          "name": "nftContract",
          "type": "address"
        },
        {
          "internalType": "uint256",
          "name": "tokenId",
          "type": "uint256"
        },
        {
          "internalType": "uint256",
          "name": "price",
          "type": "uint256"
        }
      ],
      "name": "createItemForSale",
      "outputs": [],
      "stateMutability": "payable",
      "type": "function",
      "payable": true
    },
    {
      "inputs": [
        {
          "internalType": "address",
          "name": "nftContract",
          "type": "address"
        },
        {
          "internalType": "uint256",
          "name": "nftItemId",
          "type": "uint256"
        }
      ],
      "name": "buyNFt",
      "outputs": [],
      "stateMutability": "payable",
      "type": "function",
      "payable": true
    },
    {
      "inputs": [
        {
          "internalType": "address",
          "name": "nftContract",
          "type": "address"
        },
        {
          "internalType": "uint256",
          "name": "itemId",
          "type": "uint256"
        },
        {
          "internalType": "uint256",
          "name": "newPrice",
          "type": "uint256"
        }
      ],
      "name": "putItemToResell",
      "outputs": [],
      "stateMutability": "payable",
      "type": "function",
      "payable": true
    },
    {
      "inputs": [
        {
          "internalType": "address",
          "name": "nftContract",
          "type": "address"
        },
        {
          "internalType": "uint256",
          "name": "nftItemId",
          "type": "uint256"
        }
      ],
      "name": "cancelResellWitholdPrice",
      "outputs": [],
      "stateMutability": "payable",
      "type": "function",
      "payable": true
    },
    {
      "inputs": [
        {
          "internalType": "uint256",
          "name": "nftItemId",
          "type": "uint256"
        }
      ],
      "name": "blockNFtItem",
      "outputs": [],
      "stateMutability": "payable",
      "type": "function",
      "payable": true
    },
    {
      "inputs": [
        {
          "internalType": "uint256",
          "name": "id",
          "type": "uint256"
        }
      ],
      "name": "fetchSingleItem",
      "outputs": [
        {
          "components": [
            {
              "internalType": "address",
              "name": "nftContract",
              "type": "address"
            },
            {
              "internalType": "uint256",
              "name": "id",
              "type": "uint256"
            },
            {
              "internalType": "uint256",
              "name": "tokenId",
              "type": "uint256"
            },
            {
              "internalType": "address payable",
              "name": "creator",
              "type": "address"
            },
            {
              "internalType": "address payable",
              "name": "seller",
              "type": "address"
            },
            {
              "internalType": "address payable",
              "name": "owner",
              "type": "address"
            },
            {
              "internalType": "uint256",
              "name": "price",
              "type": "uint256"
            },
            {
              "internalType": "bool",
              "name": "sold",
              "type": "bool"
            },
            {
              "internalType": "address",
              "name": "oldOwner",
              "type": "address"
            },
            {
              "internalType": "address",
              "name": "oldSeller",
              "type": "address"
            },
            {
              "internalType": "uint256",
              "name": "oldPrice",
              "type": "uint256"
            },
            {
              "internalType": "bool",
              "name": "isResell",
              "type": "bool"
            },
            {
              "internalType": "bool",
              "name": "isBanned",
              "type": "bool"
            },
            {
              "internalType": "bool",
              "name": "soldFirstTime",
              "type": "bool"
            }
          ],
          "internalType": "struct NFTMarketPlace.NftMerketItem",
          "name": "",
          "type": "tuple"
        }
      ],
      "stateMutability": "view",
      "type": "function",
      "constant": true
    },
    {
      "inputs": [],
      "name": "getMyItemCreated",
      "outputs": [
        {
          "components": [
            {
              "internalType": "address",
              "name": "nftContract",
              "type": "address"
            },
            {
              "internalType": "uint256",
              "name": "id",
              "type": "uint256"
            },
            {
              "internalType": "uint256",
              "name": "tokenId",
              "type": "uint256"
            },
            {
              "internalType": "address payable",
              "name": "creator",
              "type": "address"
            },
            {
              "internalType": "address payable",
              "name": "seller",
              "type": "address"
            },
            {
              "internalType": "address payable",
              "name": "owner",
              "type": "address"
            },
            {
              "internalType": "uint256",
              "name": "price",
              "type": "uint256"
            },
            {
              "internalType": "bool",
              "name": "sold",
              "type": "bool"
            },
            {
              "internalType": "address",
              "name": "oldOwner",
              "type": "address"
            },
            {
              "internalType": "address",
              "name": "oldSeller",
              "type": "address"
            },
            {
              "internalType": "uint256",
              "name": "oldPrice",
              "type": "uint256"
            },
            {
              "internalType": "bool",
              "name": "isResell",
              "type": "bool"
            },
            {
              "internalType": "bool",
              "name": "isBanned",
              "type": "bool"
            },
            {
              "internalType": "bool",
              "name": "soldFirstTime",
              "type": "bool"
            }
          ],
          "internalType": "struct NFTMarketPlace.NftMerketItem[]",
          "name": "",
          "type": "tuple[]"
        }
      ],
      "stateMutability": "view",
      "type": "function",
      "constant": true
    },
    {
      "inputs": [],
      "name": "getMyNFTPurchased",
      "outputs": [
        {
          "components": [
            {
              "internalType": "address",
              "name": "nftContract",
              "type": "address"
            },
            {
              "internalType": "uint256",
              "name": "id",
              "type": "uint256"
            },
            {
              "internalType": "uint256",
              "name": "tokenId",
              "type": "uint256"
            },
            {
              "internalType": "address payable",
              "name": "creator",
              "type": "address"
            },
            {
              "internalType": "address payable",
              "name": "seller",
              "type": "address"
            },
            {
              "internalType": "address payable",
              "name": "owner",
              "type": "address"
            },
            {
              "internalType": "uint256",
              "name": "price",
              "type": "uint256"
            },
            {
              "internalType": "bool",
              "name": "sold",
              "type": "bool"
            },
            {
              "internalType": "address",
              "name": "oldOwner",
              "type": "address"
            },
            {
              "internalType": "address",
              "name": "oldSeller",
              "type": "address"
            },
            {
              "internalType": "uint256",
              "name": "oldPrice",
              "type": "uint256"
            },
            {
              "internalType": "bool",
              "name": "isResell",
              "type": "bool"
            },
            {
              "internalType": "bool",
              "name": "isBanned",
              "type": "bool"
            },
            {
              "internalType": "bool",
              "name": "soldFirstTime",
              "type": "bool"
            }
          ],
          "internalType": "struct NFTMarketPlace.NftMerketItem[]",
          "name": "",
          "type": "tuple[]"
        }
      ],
      "stateMutability": "view",
      "type": "function",
      "constant": true
    },
    {
      "inputs": [],
      "name": "getAllUnsoldItems",
      "outputs": [
        {
          "components": [
            {
              "internalType": "address",
              "name": "nftContract",
              "type": "address"
            },
            {
              "internalType": "uint256",
              "name": "id",
              "type": "uint256"
            },
            {
              "internalType": "uint256",
              "name": "tokenId",
              "type": "uint256"
            },
            {
              "internalType": "address payable",
              "name": "creator",
              "type": "address"
            },
            {
              "internalType": "address payable",
              "name": "seller",
              "type": "address"
            },
            {
              "internalType": "address payable",
              "name": "owner",
              "type": "address"
            },
            {
              "internalType": "uint256",
              "name": "price",
              "type": "uint256"
            },
            {
              "internalType": "bool",
              "name": "sold",
              "type": "bool"
            },
            {
              "internalType": "address",
              "name": "oldOwner",
              "type": "address"
            },
            {
              "internalType": "address",
              "name": "oldSeller",
              "type": "address"
            },
            {
              "internalType": "uint256",
              "name": "oldPrice",
              "type": "uint256"
            },
            {
              "internalType": "bool",
              "name": "isResell",
              "type": "bool"
            },
            {
              "internalType": "bool",
              "name": "isBanned",
              "type": "bool"
            },
            {
              "internalType": "bool",
              "name": "soldFirstTime",
              "type": "bool"
            }
          ],
          "internalType": "struct NFTMarketPlace.NftMerketItem[]",
          "name": "",
          "type": "tuple[]"
        }
      ],
      "stateMutability": "view",
      "type": "function",
      "constant": true
    },
    {
      "inputs": [],
      "name": "getMyResellItems",
      "outputs": [
        {
          "components": [
            {
              "internalType": "address",
              "name": "nftContract",
              "type": "address"
            },
            {
              "internalType": "uint256",
              "name": "id",
              "type": "uint256"
            },
            {
              "internalType": "uint256",
              "name": "tokenId",
              "type": "uint256"
            },
            {
              "internalType": "address payable",
              "name": "creator",
              "type": "address"
            },
            {
              "internalType": "address payable",
              "name": "seller",
              "type": "address"
            },
            {
              "internalType": "address payable",
              "name": "owner",
              "type": "address"
            },
            {
              "internalType": "uint256",
              "name": "price",
              "type": "uint256"
            },
            {
              "internalType": "bool",
              "name": "sold",
              "type": "bool"
            },
            {
              "internalType": "address",
              "name": "oldOwner",
              "type": "address"
            },
            {
              "internalType": "address",
              "name": "oldSeller",
              "type": "address"
            },
            {
              "internalType": "uint256",
              "name": "oldPrice",
              "type": "uint256"
            },
            {
              "internalType": "bool",
              "name": "isResell",
              "type": "bool"
            },
            {
              "internalType": "bool",
              "name": "isBanned",
              "type": "bool"
            },
            {
              "internalType": "bool",
              "name": "soldFirstTime",
              "type": "bool"
            }
          ],
          "internalType": "struct NFTMarketPlace.NftMerketItem[]",
          "name": "",
          "type": "tuple[]"
        }
      ],
      "stateMutability": "view",
      "type": "function",
      "constant": true
    },
    {
      "inputs": [],
      "name": "getAllBlockItems",
      "outputs": [
        {
          "components": [
            {
              "internalType": "address",
              "name": "nftContract",
              "type": "address"
            },
            {
              "internalType": "uint256",
              "name": "id",
              "type": "uint256"
            },
            {
              "internalType": "uint256",
              "name": "tokenId",
              "type": "uint256"
            },
            {
              "internalType": "address payable",
              "name": "creator",
              "type": "address"
            },
            {
              "internalType": "address payable",
              "name": "seller",
              "type": "address"
            },
            {
              "internalType": "address payable",
              "name": "owner",
              "type": "address"
            },
            {
              "internalType": "uint256",
              "name": "price",
              "type": "uint256"
            },
            {
              "internalType": "bool",
              "name": "sold",
              "type": "bool"
            },
            {
              "internalType": "address",
              "name": "oldOwner",
              "type": "address"
            },
            {
              "internalType": "address",
              "name": "oldSeller",
              "type": "address"
            },
            {
              "internalType": "uint256",
              "name": "oldPrice",
              "type": "uint256"
            },
            {
              "internalType": "bool",
              "name": "isResell",
              "type": "bool"
            },
            {
              "internalType": "bool",
              "name": "isBanned",
              "type": "bool"
            },
            {
              "internalType": "bool",
              "name": "soldFirstTime",
              "type": "bool"
            }
          ],
          "internalType": "struct NFTMarketPlace.NftMerketItem[]",
          "name": "",
          "type": "tuple[]"
        }
      ],
      "stateMutability": "view",
      "type": "function",
      "constant": true
    },
    {
      "inputs": [],
      "name": "getAllUnBlockItems",
      "outputs": [
        {
          "components": [
            {
              "internalType": "address",
              "name": "nftContract",
              "type": "address"
            },
            {
              "internalType": "uint256",
              "name": "id",
              "type": "uint256"
            },
            {
              "internalType": "uint256",
              "name": "tokenId",
              "type": "uint256"
            },
            {
              "internalType": "address payable",
              "name": "creator",
              "type": "address"
            },
            {
              "internalType": "address payable",
              "name": "seller",
              "type": "address"
            },
            {
              "internalType": "address payable",
              "name": "owner",
              "type": "address"
            },
            {
              "internalType": "uint256",
              "name": "price",
              "type": "uint256"
            },
            {
              "internalType": "bool",
              "name": "sold",
              "type": "bool"
            },
            {
              "internalType": "address",
              "name": "oldOwner",
              "type": "address"
            },
            {
              "internalType": "address",
              "name": "oldSeller",
              "type": "address"
            },
            {
              "internalType": "uint256",
              "name": "oldPrice",
              "type": "uint256"
            },
            {
              "internalType": "bool",
              "name": "isResell",
              "type": "bool"
            },
            {
              "internalType": "bool",
              "name": "isBanned",
              "type": "bool"
            },
            {
              "internalType": "bool",
              "name": "soldFirstTime",
              "type": "bool"
            }
          ],
          "internalType": "struct NFTMarketPlace.NftMerketItem[]",
          "name": "",
          "type": "tuple[]"
        }
      ],
      "stateMutability": "view",
      "type": "function",
      "constant": true
    }
  ],
  "bytecode": "0x608060405234801561001057600080fd5b50600160008190555033600160006101000a81548173ffffffffffffffffffffffffffffffffffffffff021916908373ffffffffffffffffffffffffffffffffffffffff160217905550613d74806100696000396000f3fe6080604052600436106100a75760003560e01c8063858c295311610064578063858c2953146101905780639e31e655146101ac578063a2bf932a146101d7578063a3c3204414610214578063c7a5bc4e1461023f578063d898233f1461025b576100a7565b806325135cbf146100ac578063446269e6146100d75780634caa40671461010257806358271fff1461012d57806366b43b5d14610149578063670d343714610174575b600080fd5b3480156100b857600080fd5b506100c1610277565b6040516100ce91906133e4565b60405180910390f35b3480156100e357600080fd5b506100ec61069f565b6040516100f991906133e4565b60405180910390f35b34801561010e57600080fd5b50610117610b4b565b60405161012491906133e4565b60405180910390f35b61014760048036038101906101429190613463565b610f38565b005b34801561015557600080fd5b5061015e6113c1565b60405161016b91906133e4565b60405180910390f35b61018e600480360381019061018991906134b6565b6117ae565b005b6101aa60048036038101906101a591906134b6565b61199b565b005b3480156101b857600080fd5b506101c1611d3d565b6040516101ce91906133e4565b60405180910390f35b3480156101e357600080fd5b506101fe60048036038101906101f991906134f6565b6121e9565b60405161020b9190613643565b60405180910390f35b34801561022057600080fd5b506102296124af565b60405161023691906133e4565b60405180910390f35b61025960048036038101906102549190613463565b6129d9565b005b610275600480360381019061027091906134f6565b612f7b565b005b606060006102856002613003565b905060006102936003613003565b61029d6002613003565b6102a7919061368e565b90506000808267ffffffffffffffff8111156102c6576102c56136c2565b5b6040519080825280602002602001820160405280156102ff57816020015b6102ec613083565b8152602001906001900390816102e45790505b50905060005b8481101561069457600073ffffffffffffffffffffffffffffffffffffffff166004600060018461033691906136f1565b815260200190815260200160002060050160009054906101000a900473ffffffffffffffffffffffffffffffffffffffff1673ffffffffffffffffffffffffffffffffffffffff16141561068157600060018261039391906136f1565b9050600060046000838152602001908152602001600020905080604051806101c00160405290816000820160009054906101000a900473ffffffffffffffffffffffffffffffffffffffff1673ffffffffffffffffffffffffffffffffffffffff1673ffffffffffffffffffffffffffffffffffffffff16815260200160018201548152602001600282015481526020016003820160009054906101000a900473ffffffffffffffffffffffffffffffffffffffff1673ffffffffffffffffffffffffffffffffffffffff1673ffffffffffffffffffffffffffffffffffffffff1681526020016004820160009054906101000a900473ffffffffffffffffffffffffffffffffffffffff1673ffffffffffffffffffffffffffffffffffffffff1673ffffffffffffffffffffffffffffffffffffffff1681526020016005820160009054906101000a900473ffffffffffffffffffffffffffffffffffffffff1673ffffffffffffffffffffffffffffffffffffffff1673ffffffffffffffffffffffffffffffffffffffff168152602001600682015481526020016007820160009054906101000a900460ff161515151581526020016007820160019054906101000a900473ffffffffffffffffffffffffffffffffffffffff1673ffffffffffffffffffffffffffffffffffffffff1673ffffffffffffffffffffffffffffffffffffffff1681526020016008820160009054906101000a900473ffffffffffffffffffffffffffffffffffffffff1673ffffffffffffffffffffffffffffffffffffffff1673ffffffffffffffffffffffffffffffffffffffff16815260200160098201548152602001600a820160009054906101000a900460ff16151515158152602001600a820160019054906101000a900460ff16151515158152602001600a820160029054906101000a900460ff16151515158152505084868151811061066457610663613747565b5b602002602001018190525060018561067c91906136f1565b945050505b808061068c90613776565b915050610305565b508094505050505090565b606060006106ad6002613003565b905060008060005b83811015610756573373ffffffffffffffffffffffffffffffffffffffff16600460006001846106e591906136f1565b815260200190815260200160002060050160009054906101000a900473ffffffffffffffffffffffffffffffffffffffff1673ffffffffffffffffffffffffffffffffffffffff1614156107435760018361074091906136f1565b92505b808061074e90613776565b9150506106b5565b5060008267ffffffffffffffff811115610773576107726136c2565b5b6040519080825280602002602001820160405280156107ac57816020015b610799613083565b8152602001906001900390816107915790505b50905060005b84811015610b40573373ffffffffffffffffffffffffffffffffffffffff16600460006001846107e291906136f1565b815260200190815260200160002060050160009054906101000a900473ffffffffffffffffffffffffffffffffffffffff1673ffffffffffffffffffffffffffffffffffffffff161415610b2d57600060018261083f91906136f1565b9050600060046000838152602001908152602001600020905080604051806101c00160405290816000820160009054906101000a900473ffffffffffffffffffffffffffffffffffffffff1673ffffffffffffffffffffffffffffffffffffffff1673ffffffffffffffffffffffffffffffffffffffff16815260200160018201548152602001600282015481526020016003820160009054906101000a900473ffffffffffffffffffffffffffffffffffffffff1673ffffffffffffffffffffffffffffffffffffffff1673ffffffffffffffffffffffffffffffffffffffff1681526020016004820160009054906101000a900473ffffffffffffffffffffffffffffffffffffffff1673ffffffffffffffffffffffffffffffffffffffff1673ffffffffffffffffffffffffffffffffffffffff1681526020016005820160009054906101000a900473ffffffffffffffffffffffffffffffffffffffff1673ffffffffffffffffffffffffffffffffffffffff1673ffffffffffffffffffffffffffffffffffffffff168152602001600682015481526020016007820160009054906101000a900460ff161515151581526020016007820160019054906101000a900473ffffffffffffffffffffffffffffffffffffffff1673ffffffffffffffffffffffffffffffffffffffff1673ffffffffffffffffffffffffffffffffffffffff1681526020016008820160009054906101000a900473ffffffffffffffffffffffffffffffffffffffff1673ffffffffffffffffffffffffffffffffffffffff1673ffffffffffffffffffffffffffffffffffffffff16815260200160098201548152602001600a820160009054906101000a900460ff16151515158152602001600a820160019054906101000a900460ff16151515158152602001600a820160029054906101000a900460ff161515151581525050848681518110610b1057610b0f613747565b5b6020026020010181905250600185610b2891906136f1565b945050505b8080610b3890613776565b9150506107b2565b508094505050505090565b60606000610b596002613003565b90506000610b676003613003565b610b716002613003565b610b7b919061368e565b90506000808267ffffffffffffffff811115610b9a57610b996136c2565b5b604051908082528060200260200182016040528015610bd357816020015b610bc0613083565b815260200190600190039081610bb85790505b50905060005b84811015610f2d576001151560046000600184610bf691906136f1565b8152602001908152602001600020600a0160019054906101000a900460ff1615151415610f1a576000600182610c2c91906136f1565b9050600060046000838152602001908152602001600020905080604051806101c00160405290816000820160009054906101000a900473ffffffffffffffffffffffffffffffffffffffff1673ffffffffffffffffffffffffffffffffffffffff1673ffffffffffffffffffffffffffffffffffffffff16815260200160018201548152602001600282015481526020016003820160009054906101000a900473ffffffffffffffffffffffffffffffffffffffff1673ffffffffffffffffffffffffffffffffffffffff1673ffffffffffffffffffffffffffffffffffffffff1681526020016004820160009054906101000a900473ffffffffffffffffffffffffffffffffffffffff1673ffffffffffffffffffffffffffffffffffffffff1673ffffffffffffffffffffffffffffffffffffffff1681526020016005820160009054906101000a900473ffffffffffffffffffffffffffffffffffffffff1673ffffffffffffffffffffffffffffffffffffffff1673ffffffffffffffffffffffffffffffffffffffff168152602001600682015481526020016007820160009054906101000a900460ff161515151581526020016007820160019054906101000a900473ffffffffffffffffffffffffffffffffffffffff1673ffffffffffffffffffffffffffffffffffffffff1673ffffffffffffffffffffffffffffffffffffffff1681526020016008820160009054906101000a900473ffffffffffffffffffffffffffffffffffffffff1673ffffffffffffffffffffffffffffffffffffffff1673ffffffffffffffffffffffffffffffffffffffff16815260200160098201548152602001600a820160009054906101000a900460ff16151515158152602001600a820160019054906101000a900460ff16151515158152602001600a820160029054906101000a900460ff161515151581525050848681518110610efd57610efc613747565b5b6020026020010181905250600185610f1591906136f1565b945050505b8080610f2590613776565b915050610bd9565b508094505050505090565b60026000541415610f7e576040517f08c379a0000000000000000000000000000000000000000000000000000000008152600401610f759061381c565b60405180910390fd5b6002600081905550813373ffffffffffffffffffffffffffffffffffffffff166004600083815260200190815260200160002060050160009054906101000a900473ffffffffffffffffffffffffffffffffffffffff1673ffffffffffffffffffffffffffffffffffffffff161461102b576040517f08c379a0000000000000000000000000000000000000000000000000000000008152600401611022906138ae565b60405180910390fd5b60006004600085815260200190815260200160002060020154905060008311611089576040517f08c379a00000000000000000000000000000000000000000000000000000000081526004016110809061391a565b60405180910390fd5b60008590508073ffffffffffffffffffffffffffffffffffffffff1663f5537ede3330856040518463ffffffff1660e01b81526004016110cb93929190613958565b600060405180830381600087803b1580156110e557600080fd5b505af11580156110f9573d6000803e3d6000fd5b5050505060006004600087815260200190815260200160002060050160009054906101000a900473ffffffffffffffffffffffffffffffffffffffff16905060006004600088815260200190815260200160002060040160009054906101000a900473ffffffffffffffffffffffffffffffffffffffff1690506000600460008981526020019081526020016000206006015490506000600460008a815260200190815260200160002060050160006101000a81548173ffffffffffffffffffffffffffffffffffffffff021916908373ffffffffffffffffffffffffffffffffffffffff16021790555082600460008a815260200190815260200160002060040160006101000a81548173ffffffffffffffffffffffffffffffffffffffff021916908373ffffffffffffffffffffffffffffffffffffffff16021790555086600460008a8152602001908152602001600020600601819055506000600460008a815260200190815260200160002060070160006101000a81548160ff0219169083151502179055506000600460008a8152602001908152602001600020600a0160006101000a81548160ff02191690831515021790555082600460008a815260200190815260200160002060070160016101000a81548173ffffffffffffffffffffffffffffffffffffffff021916908373ffffffffffffffffffffffffffffffffffffffff16021790555081600460008a815260200190815260200160002060080160006101000a81548173ffffffffffffffffffffffffffffffffffffffff021916908373ffffffffffffffffffffffffffffffffffffffff16021790555080600460008a8152602001908152602001600020600901819055506113816003613011565b877f221866c21613d6f0d77d42f9309b122a25deed1bc186cff9c2f1ddafc52c34f660405160405180910390a25050505050506001600081905550505050565b606060006113cf6002613003565b905060006113dd6003613003565b6113e76002613003565b6113f1919061368e565b90506000808267ffffffffffffffff8111156114105761140f6136c2565b5b60405190808252806020026020018201604052801561144957816020015b611436613083565b81526020019060019003908161142e5790505b50905060005b848110156117a357600015156004600060018461146c91906136f1565b8152602001908152602001600020600a0160019054906101000a900460ff16151514156117905760006001826114a291906136f1565b9050600060046000838152602001908152602001600020905080604051806101c00160405290816000820160009054906101000a900473ffffffffffffffffffffffffffffffffffffffff1673ffffffffffffffffffffffffffffffffffffffff1673ffffffffffffffffffffffffffffffffffffffff16815260200160018201548152602001600282015481526020016003820160009054906101000a900473ffffffffffffffffffffffffffffffffffffffff1673ffffffffffffffffffffffffffffffffffffffff1673ffffffffffffffffffffffffffffffffffffffff1681526020016004820160009054906101000a900473ffffffffffffffffffffffffffffffffffffffff1673ffffffffffffffffffffffffffffffffffffffff1673ffffffffffffffffffffffffffffffffffffffff1681526020016005820160009054906101000a900473ffffffffffffffffffffffffffffffffffffffff1673ffffffffffffffffffffffffffffffffffffffff1673ffffffffffffffffffffffffffffffffffffffff168152602001600682015481526020016007820160009054906101000a900460ff161515151581526020016007820160019054906101000a900473ffffffffffffffffffffffffffffffffffffffff1673ffffffffffffffffffffffffffffffffffffffff1673ffffffffffffffffffffffffffffffffffffffff1681526020016008820160009054906101000a900473ffffffffffffffffffffffffffffffffffffffff1673ffffffffffffffffffffffffffffffffffffffff1673ffffffffffffffffffffffffffffffffffffffff16815260200160098201548152602001600a820160009054906101000a900460ff16151515158152602001600a820160019054906101000a900460ff16151515158152602001600a820160029054906101000a900460ff16151515158152505084868151811061177357611772613747565b5b602002602001018190525060018561178b91906136f1565b945050505b808061179b90613776565b91505061144f565b508094505050505090565b600260005414156117f4576040517f08c379a00000000000000000000000000000000000000000000000000000000081526004016117eb9061381c565b60405180910390fd5b60026000819055506000600460008381526020019081526020016000206006015490506000600460008481526020019081526020016000206002015490508373ffffffffffffffffffffffffffffffffffffffff166323b872dd3033846040518463ffffffff1660e01b815260040161186f93929190613958565b600060405180830381600087803b15801561188957600080fd5b505af115801561189d573d6000803e3d6000fd5b50505050336004600085815260200190815260200160002060050160006101000a81548173ffffffffffffffffffffffffffffffffffffffff021916908373ffffffffffffffffffffffffffffffffffffffff16021790555060016004600085815260200190815260200160002060070160006101000a81548160ff021916908315150217905550600160046000858152602001908152602001600020600a0160006101000a81548160ff021916908315150217905550600160046000858152602001908152602001600020600a0160026101000a81548160ff02191690831515021790555061198d600361306d565b505060016000819055505050565b600260005414156119e1576040517f08c379a00000000000000000000000000000000000000000000000000000000081526004016119d89061381c565b60405180910390fd5b60026000819055506000600460008381526020019081526020016000206009015490506000600460008481526020019081526020016000206002015490508373ffffffffffffffffffffffffffffffffffffffff166323b872dd3033846040518463ffffffff1660e01b8152600401611a5c93929190613958565b600060405180830381600087803b158015611a7657600080fd5b505af1158015611a8a573d6000803e3d6000fd5b50505050336004600085815260200190815260200160002060050160006101000a81548173ffffffffffffffffffffffffffffffffffffffff021916908373ffffffffffffffffffffffffffffffffffffffff1602179055508160046000858152602001908152602001600020600601819055506004600084815260200190815260200160002060080160009054906101000a900473ffffffffffffffffffffffffffffffffffffffff166004600085815260200190815260200160002060040160006101000a81548173ffffffffffffffffffffffffffffffffffffffff021916908373ffffffffffffffffffffffffffffffffffffffff16021790555060016004600085815260200190815260200160002060070160006101000a81548160ff021916908315150217905550611bc2600361306d565b60046000848152602001908152602001600020600201546004600085815260200190815260200160002060000160009054906101000a900473ffffffffffffffffffffffffffffffffffffffff1673ffffffffffffffffffffffffffffffffffffffff1660046000868152602001908152602001600020600101547ff6e29670d369f2c68d245ecdab1e0cff04910d4dc7497fe64d809958a02c161c6004600088815260200190815260200160002060030160009054906101000a900473ffffffffffffffffffffffffffffffffffffffff166004600089815260200190815260200160002060040160009054906101000a900473ffffffffffffffffffffffffffffffffffffffff1633600460008b8152602001908152602001600020600601546000806000600460008f8152602001908152602001600020600a0160009054906101000a900460ff1660006001604051611d279a99989796959493929190613a38565b60405180910390a4505060016000819055505050565b60606000611d4b6002613003565b905060008060005b83811015611df4573373ffffffffffffffffffffffffffffffffffffffff1660046000600184611d8391906136f1565b815260200190815260200160002060030160009054906101000a900473ffffffffffffffffffffffffffffffffffffffff1673ffffffffffffffffffffffffffffffffffffffff161415611de157600183611dde91906136f1565b92505b8080611dec90613776565b915050611d53565b5060008267ffffffffffffffff811115611e1157611e106136c2565b5b604051908082528060200260200182016040528015611e4a57816020015b611e37613083565b815260200190600190039081611e2f5790505b50905060005b848110156121de573373ffffffffffffffffffffffffffffffffffffffff1660046000600184611e8091906136f1565b815260200190815260200160002060030160009054906101000a900473ffffffffffffffffffffffffffffffffffffffff1673ffffffffffffffffffffffffffffffffffffffff1614156121cb576000600182611edd91906136f1565b9050600060046000838152602001908152602001600020905080604051806101c00160405290816000820160009054906101000a900473ffffffffffffffffffffffffffffffffffffffff1673ffffffffffffffffffffffffffffffffffffffff1673ffffffffffffffffffffffffffffffffffffffff16815260200160018201548152602001600282015481526020016003820160009054906101000a900473ffffffffffffffffffffffffffffffffffffffff1673ffffffffffffffffffffffffffffffffffffffff1673ffffffffffffffffffffffffffffffffffffffff1681526020016004820160009054906101000a900473ffffffffffffffffffffffffffffffffffffffff1673ffffffffffffffffffffffffffffffffffffffff1673ffffffffffffffffffffffffffffffffffffffff1681526020016005820160009054906101000a900473ffffffffffffffffffffffffffffffffffffffff1673ffffffffffffffffffffffffffffffffffffffff1673ffffffffffffffffffffffffffffffffffffffff168152602001600682015481526020016007820160009054906101000a900460ff161515151581526020016007820160019054906101000a900473ffffffffffffffffffffffffffffffffffffffff1673ffffffffffffffffffffffffffffffffffffffff1673ffffffffffffffffffffffffffffffffffffffff1681526020016008820160009054906101000a900473ffffffffffffffffffffffffffffffffffffffff1673ffffffffffffffffffffffffffffffffffffffff1673ffffffffffffffffffffffffffffffffffffffff16815260200160098201548152602001600a820160009054906101000a900460ff16151515158152602001600a820160019054906101000a900460ff16151515158152602001600a820160029054906101000a900460ff1615151515815250508486815181106121ae576121ad613747565b5b60200260200101819052506001856121c691906136f1565b945050505b80806121d690613776565b915050611e50565b508094505050505090565b6121f1613083565b60046000838152602001908152602001600020604051806101c00160405290816000820160009054906101000a900473ffffffffffffffffffffffffffffffffffffffff1673ffffffffffffffffffffffffffffffffffffffff1673ffffffffffffffffffffffffffffffffffffffff16815260200160018201548152602001600282015481526020016003820160009054906101000a900473ffffffffffffffffffffffffffffffffffffffff1673ffffffffffffffffffffffffffffffffffffffff1673ffffffffffffffffffffffffffffffffffffffff1681526020016004820160009054906101000a900473ffffffffffffffffffffffffffffffffffffffff1673ffffffffffffffffffffffffffffffffffffffff1673ffffffffffffffffffffffffffffffffffffffff1681526020016005820160009054906101000a900473ffffffffffffffffffffffffffffffffffffffff1673ffffffffffffffffffffffffffffffffffffffff1673ffffffffffffffffffffffffffffffffffffffff168152602001600682015481526020016007820160009054906101000a900460ff161515151581526020016007820160019054906101000a900473ffffffffffffffffffffffffffffffffffffffff1673ffffffffffffffffffffffffffffffffffffffff1673ffffffffffffffffffffffffffffffffffffffff1681526020016008820160009054906101000a900473ffffffffffffffffffffffffffffffffffffffff1673ffffffffffffffffffffffffffffffffffffffff1673ffffffffffffffffffffffffffffffffffffffff16815260200160098201548152602001600a820160009054906101000a900460ff16151515158152602001600a820160019054906101000a900460ff16151515158152602001600a820160029054906101000a900460ff1615151515815250509050919050565b606060006124bd6002613003565b905060008060005b838110156125a5573373ffffffffffffffffffffffffffffffffffffffff16600460006001846124f591906136f1565b815260200190815260200160002060040160009054906101000a900473ffffffffffffffffffffffffffffffffffffffff1673ffffffffffffffffffffffffffffffffffffffff1614801561257d5750600015156004600060018461255a91906136f1565b815260200190815260200160002060070160009054906101000a900460ff161515145b156125925760018361258f91906136f1565b92505b808061259d90613776565b9150506124c5565b5060008267ffffffffffffffff8111156125c2576125c16136c2565b5b6040519080825280602002602001820160405280156125fb57816020015b6125e8613083565b8152602001906001900390816125e05790505b50905060005b848110156129ce573373ffffffffffffffffffffffffffffffffffffffff166004600060018461263191906136f1565b815260200190815260200160002060040160009054906101000a900473ffffffffffffffffffffffffffffffffffffffff1673ffffffffffffffffffffffffffffffffffffffff161480156126b95750600015156004600060018461269691906136f1565b815260200190815260200160002060070160009054906101000a900460ff161515145b156129bb5760006001826126cd91906136f1565b9050600060046000838152602001908152602001600020905080604051806101c00160405290816000820160009054906101000a900473ffffffffffffffffffffffffffffffffffffffff1673ffffffffffffffffffffffffffffffffffffffff1673ffffffffffffffffffffffffffffffffffffffff16815260200160018201548152602001600282015481526020016003820160009054906101000a900473ffffffffffffffffffffffffffffffffffffffff1673ffffffffffffffffffffffffffffffffffffffff1673ffffffffffffffffffffffffffffffffffffffff1681526020016004820160009054906101000a900473ffffffffffffffffffffffffffffffffffffffff1673ffffffffffffffffffffffffffffffffffffffff1673ffffffffffffffffffffffffffffffffffffffff1681526020016005820160009054906101000a900473ffffffffffffffffffffffffffffffffffffffff1673ffffffffffffffffffffffffffffffffffffffff1673ffffffffffffffffffffffffffffffffffffffff168152602001600682015481526020016007820160009054906101000a900460ff161515151581526020016007820160019054906101000a900473ffffffffffffffffffffffffffffffffffffffff1673ffffffffffffffffffffffffffffffffffffffff1673ffffffffffffffffffffffffffffffffffffffff1681526020016008820160009054906101000a900473ffffffffffffffffffffffffffffffffffffffff1673ffffffffffffffffffffffffffffffffffffffff1673ffffffffffffffffffffffffffffffffffffffff16815260200160098201548152602001600a820160009054906101000a900460ff16151515158152602001600a820160019054906101000a900460ff16151515158152602001600a820160029054906101000a900460ff16151515158152505084868151811061299e5761299d613747565b5b60200260200101819052506001856129b691906136f1565b945050505b80806129c690613776565b915050612601565b508094505050505090565b60026000541415612a1f576040517f08c379a0000000000000000000000000000000000000000000000000000000008152600401612a169061381c565b60405180910390fd5b600260008190555060008111612a6a576040517f08c379a0000000000000000000000000000000000000000000000000000000008152600401612a6190613b20565b60405180910390fd5b60008211612aad576040517f08c379a0000000000000000000000000000000000000000000000000000000008152600401612aa490613b8c565b60405180910390fd5b600073ffffffffffffffffffffffffffffffffffffffff168373ffffffffffffffffffffffffffffffffffffffff161415612b1d576040517f08c379a0000000000000000000000000000000000000000000000000000000008152600401612b1490613bf8565b60405180910390fd5b612b27600261306d565b6000612b336002613003565b9050604051806101c001604052808573ffffffffffffffffffffffffffffffffffffffff1681526020018281526020018481526020013373ffffffffffffffffffffffffffffffffffffffff1681526020013373ffffffffffffffffffffffffffffffffffffffff168152602001600073ffffffffffffffffffffffffffffffffffffffff168152602001838152602001600015158152602001600073ffffffffffffffffffffffffffffffffffffffff168152602001600073ffffffffffffffffffffffffffffffffffffffff168152602001838152602001600015158152602001600015158152602001600015158152506004600083815260200190815260200160002060008201518160000160006101000a81548173ffffffffffffffffffffffffffffffffffffffff021916908373ffffffffffffffffffffffffffffffffffffffff160217905550602082015181600101556040820151816002015560608201518160030160006101000a81548173ffffffffffffffffffffffffffffffffffffffff021916908373ffffffffffffffffffffffffffffffffffffffff16021790555060808201518160040160006101000a81548173ffffffffffffffffffffffffffffffffffffffff021916908373ffffffffffffffffffffffffffffffffffffffff16021790555060a08201518160050160006101000a81548173ffffffffffffffffffffffffffffffffffffffff021916908373ffffffffffffffffffffffffffffffffffffffff16021790555060c0820151816006015560e08201518160070160006101000a81548160ff0219169083151502179055506101008201518160070160016101000a81548173ffffffffffffffffffffffffffffffffffffffff021916908373ffffffffffffffffffffffffffffffffffffffff1602179055506101208201518160080160006101000a81548173ffffffffffffffffffffffffffffffffffffffff021916908373ffffffffffffffffffffffffffffffffffffffff160217905550610140820151816009015561016082015181600a0160006101000a81548160ff02191690831515021790555061018082015181600a0160016101000a81548160ff0219169083151502179055506101a082015181600a0160026101000a81548160ff0219169083151502179055509050508373ffffffffffffffffffffffffffffffffffffffff166323b872dd3330866040518463ffffffff1660e01b8152600401612ed193929190613958565b600060405180830381600087803b158015612eeb57600080fd5b505af1158015612eff573d6000803e3d6000fd5b50505050808473ffffffffffffffffffffffffffffffffffffffff167f20cee0fdd36127b698afa0a28d61d4454be0d59ce0cc495c903ef033f3cd605f85333360008860008060008c6000806000604051612f659c9b9a99989796959493929190613c18565b60405180910390a3506001600081905550505050565b60026000541415612fc1576040517f08c379a0000000000000000000000000000000000000000000000000000000008152600401612fb89061381c565b60405180910390fd5b6002600081905550600160046000838152602001908152602001600020600a0160016101000a81548160ff021916908315150217905550600160008190555050565b600081600001549050919050565b6000816000015490506000811161305d576040517f08c379a000000000000000000000000000000000000000000000000000000000815260040161305490613d1e565b60405180910390fd5b6001810382600001819055505050565b6001816000016000828254019250508190555050565b604051806101c00160405280600073ffffffffffffffffffffffffffffffffffffffff1681526020016000815260200160008152602001600073ffffffffffffffffffffffffffffffffffffffff168152602001600073ffffffffffffffffffffffffffffffffffffffff168152602001600073ffffffffffffffffffffffffffffffffffffffff16815260200160008152602001600015158152602001600073ffffffffffffffffffffffffffffffffffffffff168152602001600073ffffffffffffffffffffffffffffffffffffffff168152602001600081526020016000151581526020016000151581526020016000151581525090565b600081519050919050565b600082825260208201905092915050565b6000819050602082019050919050565b600073ffffffffffffffffffffffffffffffffffffffff82169050919050565b60006131d5826131aa565b9050919050565b6131e5816131ca565b82525050565b6000819050919050565b6131fe816131eb565b82525050565b600061320f826131aa565b9050919050565b61321f81613204565b82525050565b60008115159050919050565b61323a81613225565b82525050565b6101c08201600082015161325760008501826131dc565b50602082015161326a60208501826131f5565b50604082015161327d60408501826131f5565b5060608201516132906060850182613216565b5060808201516132a36080850182613216565b5060a08201516132b660a0850182613216565b5060c08201516132c960c08501826131f5565b5060e08201516132dc60e0850182613231565b506101008201516132f16101008501826131dc565b506101208201516133066101208501826131dc565b5061014082015161331b6101408501826131f5565b50610160820151613330610160850182613231565b50610180820151613345610180850182613231565b506101a082015161335a6101a0850182613231565b50505050565b600061336c8383613240565b6101c08301905092915050565b6000602082019050919050565b60006133918261317e565b61339b8185613189565b93506133a68361319a565b8060005b838110156133d75781516133be8882613360565b97506133c983613379565b9250506001810190506133aa565b5085935050505092915050565b600060208201905081810360008301526133fe8184613386565b905092915050565b600080fd5b613414816131ca565b811461341f57600080fd5b50565b6000813590506134318161340b565b92915050565b613440816131eb565b811461344b57600080fd5b50565b60008135905061345d81613437565b92915050565b60008060006060848603121561347c5761347b613406565b5b600061348a86828701613422565b935050602061349b8682870161344e565b92505060406134ac8682870161344e565b9150509250925092565b600080604083850312156134cd576134cc613406565b5b60006134db85828601613422565b92505060206134ec8582860161344e565b9150509250929050565b60006020828403121561350c5761350b613406565b5b600061351a8482850161344e565b91505092915050565b6101c08201600082015161353a60008501826131dc565b50602082015161354d60208501826131f5565b50604082015161356060408501826131f5565b5060608201516135736060850182613216565b5060808201516135866080850182613216565b5060a082015161359960a0850182613216565b5060c08201516135ac60c08501826131f5565b5060e08201516135bf60e0850182613231565b506101008201516135d46101008501826131dc565b506101208201516135e96101208501826131dc565b506101408201516135fe6101408501826131f5565b50610160820151613613610160850182613231565b50610180820151613628610180850182613231565b506101a082015161363d6101a0850182613231565b50505050565b60006101c0820190506136596000830184613523565b92915050565b7f4e487b7100000000000000000000000000000000000000000000000000000000600052601160045260246000fd5b6000613699826131eb565b91506136a4836131eb565b9250828210156136b7576136b661365f565b5b828203905092915050565b7f4e487b7100000000000000000000000000000000000000000000000000000000600052604160045260246000fd5b60006136fc826131eb565b9150613707836131eb565b9250827fffffffffffffffffffffffffffffffffffffffffffffffffffffffffffffffff0382111561373c5761373b61365f565b5b828201905092915050565b7f4e487b7100000000000000000000000000000000000000000000000000000000600052603260045260246000fd5b6000613781826131eb565b91507fffffffffffffffffffffffffffffffffffffffffffffffffffffffffffffffff8214156137b4576137b361365f565b5b600182019050919050565b600082825260208201905092915050565b7f5265656e7472616e637947756172643a207265656e7472616e742063616c6c00600082015250565b6000613806601f836137bf565b9150613811826137d0565b602082019050919050565b60006020820190508181036000830152613835816137f9565b9050919050565b7f4f6e6c792070726f64756374206f776e65722063616e20646f2074686973206f60008201527f7065726174696f6e000000000000000000000000000000000000000000000000602082015250565b60006138986028836137bf565b91506138a38261383c565b604082019050919050565b600060208201905081810360008301526138c78161388b565b9050919050565b7f5072696365206d757374206265206174206c6561737420312077656900000000600082015250565b6000613904601c836137bf565b915061390f826138ce565b602082019050919050565b60006020820190508181036000830152613933816138f7565b9050919050565b613943816131ca565b82525050565b613952816131eb565b82525050565b600060608201905061396d600083018661393a565b61397a602083018561393a565b6139876040830184613949565b949350505050565b6000819050919050565b60006139b46139af6139aa846131aa565b61398f565b6131aa565b9050919050565b60006139c682613999565b9050919050565b60006139d8826139bb565b9050919050565b6139e8816139cd565b82525050565b6000819050919050565b6000613a13613a0e613a09846139ee565b61398f565b6131eb565b9050919050565b613a23816139f8565b82525050565b613a3281613225565b82525050565b600061014082019050613a4e600083018d6139df565b613a5b602083018c6139df565b613a68604083018b6139df565b613a75606083018a613949565b613a82608083018961393a565b613a8f60a083018861393a565b613a9c60c0830187613a1a565b613aa960e0830186613a29565b613ab7610100830185613a29565b613ac5610120830184613a29565b9b9a5050505050505050505050565b7f50726963652073686f756c64206265206d6f72655468616e2031000000000000600082015250565b6000613b0a601a836137bf565b9150613b1582613ad4565b602082019050919050565b60006020820190508181036000830152613b3981613afd565b9050919050565b7f746f6b656e2049642073686f756c64206265206d6f72655468616e2031000000600082015250565b6000613b76601d836137bf565b9150613b8182613b40565b602082019050919050565b60006020820190508181036000830152613ba581613b69565b9050919050565b7f616464726573732073686f756c64206e6f7420626520657175616c2030783000600082015250565b6000613be2601f836137bf565b9150613bed82613bac565b602082019050919050565b60006020820190508181036000830152613c1181613bd5565b9050919050565b600061018082019050613c2e600083018f613949565b613c3b602083018e61393a565b613c48604083018d61393a565b613c55606083018c61393a565b613c62608083018b613949565b613c6f60a083018a613a29565b613c7c60c083018961393a565b613c8960e083018861393a565b613c97610100830187613949565b613ca5610120830186613a29565b613cb3610140830185613a29565b613cc1610160830184613a29565b9d9c50505050505050505050505050565b7f436f756e7465723a2064656372656d656e74206f766572666c6f770000000000600082015250565b6000613d08601b836137bf565b9150613d1382613cd2565b602082019050919050565b60006020820190508181036000830152613d3781613cfb565b905091905056fea26469706673582212204f3921c4b4e4541e1eb30b36bfd142529a97abb72c1273c08d3cb8ac8c4fb8d764736f6c63430008090033",
  "immutableReferences": {},
  "source": "// SPDX-License-Identifier: MIT\npragma solidity ^0.8.0;\nimport \"@openzeppelin/contracts/utils/Counters.sol\";\nimport \"@openzeppelin/contracts/token/ERC721/ERC721.sol\";\nimport \"@openzeppelin/contracts/security/ReentrancyGuard.sol\";\n\nimport \"./NFT.sol\";\nimport \"./Token.sol\";\n\ncontract NFTMarketPlace is ReentrancyGuard {\n\n    address payable owner;\n      using Counters for Counters.Counter;\n     Counters.Counter private itemId;\n    Counters.Counter private itemsSold;\n\n     constructor(){\n         owner = payable(msg.sender);\n     }\n\n    struct NftMerketItem{\n              address nftContract;\n        uint256 id;\n        uint256 tokenId;\n          //=>\n        address payable creator;\n        address  payable seller;\n       address payable owner;\n\n        uint256 price;\n        bool sold;\n        address oldOwner;\n        address oldSeller;\n\n        uint256 oldPrice;\n        bool isResell;\n      bool isBanned;\n               bool soldFirstTime;\n\n\n    }\n\n        event NftMarketItemCreated(\n        address  indexed nftContract,\n        uint256 indexed id,\n        uint256 tokenId,\n       \n        //=>\n         address  creator,\n\n        address  seller,\n         address  owner,\n        uint256 price,\n        bool sold,\n        address oldOwner,\n         address oldSeller,\n\n        uint256 oldPrice,\n       bool isResell,\n             bool isBanned,\n                      bool soldFirstTime\n\n\n        );\n     //=>\n     event ProductUpdated(\n      uint256 indexed id,\n      uint256 indexed newPrice,\n       bool sold,\n        address  owner,\n         address  seller,\n               bool isBanned,\n                        bool soldFirstTime\n\n\n    );\n      //=>\n\n      //=>\n    event ProductSold(\n        uint256 indexed id,\n        address indexed nftContract,\n        uint256 indexed tokenId,\n        address creator,\n        address seller,\n        address owner,\n        uint256 price,\n        address oldOwner,\n        address oldSeller,\n        uint256 oldPrice,\n        bool isResell,\n         bool isBanned,\n         bool soldFirstTime\n\n    );\n    //==>\n           event ProductListed(\n        uint256 indexed itemId\n    );\n       ///=>\n        modifier onlyProductOrMarketPlaceOwner(uint256 id) {\n        if (idForMarketItem[id].owner != address(0)) {\n            require(idForMarketItem[id].owner == msg.sender);\n        } else {\n            require(\n                idForMarketItem[id].seller == msg.sender || msg.sender == owner\n            );\n        }\n        _;\n    }\n\n    modifier onlyProductSeller(uint256 id) {\n        require(\n            idForMarketItem[id].owner == address(0) &&\n                idForMarketItem[id].seller == msg.sender, \"Only the product can do this operation\"\n        );\n        _;\n    }\n\n    modifier onlyItemOwner(uint256 id) {\n        require(\n            idForMarketItem[id].owner == msg.sender,\n            \"Only product owner can do this operation\"\n        );\n        _;\n    }\n\n      modifier onlyItemOldOwner(uint256 id) {\n        require(\n            idForMarketItem[id].oldOwner == msg.sender,\n            \"Only product Old owner can do this operation\"\n        );\n        _;\n    }\n\n    \n///////////////////////////////////\n     mapping(uint256=>NftMerketItem) private idForMarketItem;\n///////////////////////////////////\n\n\n    function createItemForSale(address nftContract,uint256 tokenId,uint256 price)public payable nonReentrant {\n        require(price >0,\"Price should be moreThan 1\");\n        require(tokenId >0,\"token Id should be moreThan 1\");\n        require(nftContract != address(0),\"address should not be equal 0x0\");\n\n         \n\n\n        itemId.increment();\n        uint256 id = itemId.current();\n\n        idForMarketItem[id]= NftMerketItem(\n              nftContract,\n            id,\n            tokenId,\n            payable(msg.sender),\n            payable(msg.sender),\n            payable (address (0)),\n            price,\n            false,\n            payable(address(0)),\n            payable(address(0)),\n            price,\n            false,\n            false,\n            false\n        );\n\n        IERC721(nftContract).transferFrom(msg.sender, address(this), tokenId);\n      \n        emit NftMarketItemCreated(nftContract, id, tokenId,  msg.sender, msg.sender,address(0), price, false,address(0),address(0),price,false,false,false);\n\n    }\n    //Buy nft\n\n    function buyNFt(address nftContract,uint256 nftItemId) public payable nonReentrant {\n     uint256 price = idForMarketItem[nftItemId].price;\n     uint256 tokenId = idForMarketItem[nftItemId].tokenId;\n\n      IERC721(nftContract).transferFrom(address(this), msg.sender, tokenId); //buy\n      idForMarketItem[nftItemId].owner = payable(msg.sender);\n      idForMarketItem[nftItemId].sold =  true;\n    idForMarketItem[nftItemId].isResell =  true;\n    idForMarketItem[nftItemId].soldFirstTime =  true;\n\n      itemsSold.increment();\n\n\n         \n    }\n     //REsell\n\n     function putItemToResell(address nftContract, uint256 itemId, uint256 newPrice)\n        public\n        payable\n        nonReentrant\n        onlyItemOwner(itemId)\n    {\n        uint256 tokenId = idForMarketItem[itemId].tokenId;\n        require(newPrice > 0, \"Price must be at least 1 wei\");\n\n        NFT tokenContract = NFT(nftContract);\n\n        tokenContract.transferToken(msg.sender, address(this), tokenId);\n\n        address payable oldOwner = idForMarketItem[itemId].owner;\n          address payable oldSeller = idForMarketItem[itemId].seller;\n\n        uint256 oldPrice = idForMarketItem[itemId].price;\n\n        idForMarketItem[itemId].owner = payable(address(0));\n        idForMarketItem[itemId].seller = oldOwner;\n        idForMarketItem[itemId].price = newPrice;\n        idForMarketItem[itemId].sold = false;\n        idForMarketItem[itemId].isResell = false;\n\n        //Start to save old value\n        idForMarketItem[itemId].oldOwner = oldOwner;\n        idForMarketItem[itemId].oldSeller = oldSeller;\n         idForMarketItem[itemId].oldPrice = oldPrice;\n        \n     itemsSold.decrement();\n          emit ProductListed(itemId);\n\n    }\n\n//TO DO Send when cancel fees to Owner\n        function cancelResellWitholdPrice(address nftContract,uint256 nftItemId) public  payable nonReentrant {\n    uint256 price = idForMarketItem[nftItemId].oldPrice;\n     uint256 tokenId = idForMarketItem[nftItemId].tokenId;\n\n\n\n      IERC721(nftContract).transferFrom(address(this), msg.sender, tokenId); //buy\n      idForMarketItem[nftItemId].owner = payable(msg.sender);\n      idForMarketItem[nftItemId].price = price;\n       idForMarketItem[nftItemId].seller = payable(idForMarketItem[nftItemId].oldSeller);\n      idForMarketItem[nftItemId].sold =  true;\n      itemsSold.increment();\n\n           emit ProductSold(\n            idForMarketItem[nftItemId].id,\n            idForMarketItem[nftItemId].nftContract,\n            idForMarketItem[nftItemId].tokenId,\n            idForMarketItem[nftItemId].creator,\n            idForMarketItem[nftItemId].seller,\n            payable(msg.sender),\n            idForMarketItem[nftItemId].price,\n            address(0),\n            address(0),\n            0,\n            idForMarketItem[nftItemId].isResell,\n            false,\n            true\n        );\n\n    }\n\n    //Bloack any NFT\n\n     function blockNFtItem(uint256 nftItemId) public  payable nonReentrant  {\n      idForMarketItem[nftItemId].isBanned =  true;\n\n    }\n\n    ///FETCH SINGLE NFT\n  function fetchSingleItem(uint256 id) public view returns (NftMerketItem memory)\n       \n    {\n        return idForMarketItem[id];\n    }\n    //=>Update Item =>We Dont Use This\n\n    \n\n\n\nfunction getMyItemCreated() public view returns(NftMerketItem[] memory){\nuint256 totalItemCount = itemId.current(); \nuint myItemCount=0;//10\nuint myCurrentIndex =0;\n\nfor(uint i = 0;i<totalItemCount;i++){\n    if(idForMarketItem[i+1].creator == msg.sender){\n        myItemCount+=1;\n\n    }\n}\nNftMerketItem [] memory nftItems = new NftMerketItem[](myItemCount); //list[3]\nfor(uint i = 0;i<totalItemCount;i++){\n    if(idForMarketItem[i+1].creator==msg.sender){      //[1,2,3,4,5]\n      uint currentId = i+1;\n        NftMerketItem storage  currentItem = idForMarketItem[currentId];\n        nftItems[myCurrentIndex] = currentItem;\n        myCurrentIndex +=1;\n        \n    }\n}\n\n\nreturn nftItems;\n\n}\n\n\n//Create My purchased Nft Item\n\nfunction getMyNFTPurchased() public view returns(NftMerketItem[] memory){\nuint256 totalItemCount = itemId.current(); \nuint myItemCount=0;//10\nuint myCurrentIndex =0;\n\nfor(uint i = 0;i<totalItemCount;i++){\n    if(idForMarketItem[i + 1 ].owner == msg.sender){\n        myItemCount+=1;\n\n    }\n}\n\nNftMerketItem [] memory nftItems = new NftMerketItem[](myItemCount); //list[3]\nfor(uint i = 0;i<totalItemCount;i++){\n    if(idForMarketItem[i+1].owner== msg.sender){      //[1,2,3,4,5]\n      uint currentId = i+1;\n        NftMerketItem storage  currentItem = idForMarketItem[currentId];\n        nftItems[myCurrentIndex] = currentItem;\n        myCurrentIndex +=1;\n        \n    }\n}\n\n\nreturn nftItems;\n\n}\n//Fetch  all unsold nft items\nfunction getAllUnsoldItems()public view returns (NftMerketItem[] memory){\n\nuint256 totalItemCount = itemId.current(); \nuint myItemCount= itemId.current() - itemsSold.current();\nuint myCurrentIndex =0;\n\n\n\nNftMerketItem [] memory nftItems = new NftMerketItem[](myItemCount); //list[3]\nfor(uint i = 0;i<totalItemCount;i++){\n    if(idForMarketItem[i+1].owner== address(0)){      //[1,2,3,4,5]\n      uint currentId = i+1;\n        NftMerketItem storage  currentItem = idForMarketItem[currentId];\n        nftItems[myCurrentIndex] = currentItem;\n        myCurrentIndex +=1;\n        \n    }\n}\n\n\nreturn nftItems;\n\n\n}\n\n\n//Get resell my items\n\nfunction getMyResellItems() public view returns(NftMerketItem[] memory){\nuint256 totalItemCount = itemId.current(); \nuint myItemCount=0;//10\nuint myCurrentIndex =0;\n\nfor(uint i = 0;i<totalItemCount;i++){\n    if((idForMarketItem[i + 1 ].seller == msg.sender)&&(idForMarketItem[i + 1 ].sold == false)){\n        myItemCount+=1;\n\n    }\n}\n\nNftMerketItem [] memory nftItems = new NftMerketItem[](myItemCount); //list[3]\nfor(uint i = 0;i<totalItemCount;i++){\n    if((idForMarketItem[i + 1 ].seller == msg.sender)&&(idForMarketItem[i + 1 ].sold == false)){      //[1,2,3,4,5]\n      uint currentId = i+1;\n        NftMerketItem storage  currentItem = idForMarketItem[currentId];\n        nftItems[myCurrentIndex] = currentItem;\n        myCurrentIndex +=1;\n        \n    }\n}\n\n\nreturn nftItems;\n\n}\n\n\nfunction getAllBlockItems()public view returns (NftMerketItem[] memory){\n\nuint256 totalItemCount = itemId.current(); \nuint myItemCount= itemId.current() - itemsSold.current();\nuint myCurrentIndex =0;\n\n\n\nNftMerketItem [] memory nftItems = new NftMerketItem[](myItemCount); //list[3]\nfor(uint i = 0;i<totalItemCount;i++){\n    if((idForMarketItem[i + 1 ].isBanned == true)){\n        //[1,2,3,4,5]\n      uint currentId = i+1;\n        NftMerketItem storage  currentItem = idForMarketItem[currentId];\n        nftItems[myCurrentIndex] = currentItem;\n        myCurrentIndex +=1;\n        \n    \n\n    }\n  \n}\n\n\nreturn nftItems;\n\n\n}\n\n\nfunction getAllUnBlockItems()public view returns (NftMerketItem[] memory){\n\nuint256 totalItemCount = itemId.current(); \nuint myItemCount= itemId.current() - itemsSold.current();\nuint myCurrentIndex =0;\n\n\n\nNftMerketItem [] memory nftItems = new NftMerketItem[](myItemCount); //list[3]\nfor(uint i = 0;i<totalItemCount;i++){\n    if((idForMarketItem[i + 1 ].isBanned == false)){\n        //[1,2,3,4,5]\n      uint currentId = i+1;\n        NftMerketItem storage  currentItem = idForMarketItem[currentId];\n        nftItems[myCurrentIndex] = currentItem;\n        myCurrentIndex +=1;\n        \n    \n\n    }\n  \n}\n\n\nreturn nftItems;\n\n\n}\n}",
  "sourcePath": "/Users/mrbebo/Documents/GitHub/arcex-Nft_Marketplace_with_Token/contracts/NFTMarketPlace.sol",
  "compiler": {
    "name": "solc",
    "version": "0.8.9+commit.e5eed63a.Emscripten.clang"
  },
  "schemaVersion": "3.4.3",
  "updatedAt": "2023-05-30T08:44:47.540Z",
  "networkType": "ethereum",
  "devdoc": {
    "kind": "dev",
    "methods": {},
    "version": 1
  },
  "userdoc": {
    "kind": "user",
    "methods": {
      "fetchSingleItem(uint256)": {
        "notice": "FETCH SINGLE NFT"
      }
    },
    "version": 1
  }
}